{
  "contractName": "ChillarToken",
  "abi": [
    {
      "inputs": [
        {
          "internalType": "uint256",
          "name": "_initialSupply",
          "type": "uint256"
        }
      ],
      "stateMutability": "nonpayable",
      "type": "constructor"
    },
    {
      "anonymous": false,
      "inputs": [
        {
          "indexed": true,
          "internalType": "address",
          "name": "_owner",
          "type": "address"
        },
        {
          "indexed": true,
          "internalType": "address",
          "name": "_spender",
          "type": "address"
        },
        {
          "indexed": false,
          "internalType": "uint256",
          "name": "_value",
          "type": "uint256"
        }
      ],
      "name": "Approval",
      "type": "event"
    },
    {
      "anonymous": false,
      "inputs": [
        {
          "indexed": true,
          "internalType": "address",
          "name": "_from",
          "type": "address"
        },
        {
          "indexed": true,
          "internalType": "address",
          "name": "_to",
          "type": "address"
        },
        {
          "indexed": false,
          "internalType": "uint256",
          "name": "_value",
          "type": "uint256"
        }
      ],
      "name": "Transfer",
      "type": "event"
    },
    {
      "inputs": [],
      "name": "_decimals",
      "outputs": [
        {
          "internalType": "uint256",
          "name": "",
          "type": "uint256"
        }
      ],
      "stateMutability": "view",
      "type": "function"
    },
    {
      "inputs": [],
      "name": "_name",
      "outputs": [
        {
          "internalType": "string",
          "name": "",
          "type": "string"
        }
      ],
      "stateMutability": "view",
      "type": "function"
    },
    {
      "inputs": [],
      "name": "_symbol",
      "outputs": [
        {
          "internalType": "string",
          "name": "",
          "type": "string"
        }
      ],
      "stateMutability": "view",
      "type": "function"
    },
    {
      "inputs": [
        {
          "internalType": "address",
          "name": "",
          "type": "address"
        },
        {
          "internalType": "address",
          "name": "",
          "type": "address"
        }
      ],
      "name": "allowance",
      "outputs": [
        {
          "internalType": "uint256",
          "name": "",
          "type": "uint256"
        }
      ],
      "stateMutability": "view",
      "type": "function"
    },
    {
      "inputs": [
        {
          "internalType": "address",
          "name": "",
          "type": "address"
        }
      ],
      "name": "balanceOf",
      "outputs": [
        {
          "internalType": "uint256",
          "name": "",
          "type": "uint256"
        }
      ],
      "stateMutability": "view",
      "type": "function"
    },
    {
      "inputs": [],
      "name": "totalSupply",
      "outputs": [
        {
          "internalType": "uint256",
          "name": "",
          "type": "uint256"
        }
      ],
      "stateMutability": "view",
      "type": "function"
    },
    {
      "inputs": [
        {
          "internalType": "address",
          "name": "_to",
          "type": "address"
        },
        {
          "internalType": "uint256",
          "name": "_value",
          "type": "uint256"
        }
      ],
      "name": "transfer",
      "outputs": [
        {
          "internalType": "bool",
          "name": "success",
          "type": "bool"
        }
      ],
      "stateMutability": "nonpayable",
      "type": "function"
    },
    {
      "inputs": [
        {
          "internalType": "address",
          "name": "_spender",
          "type": "address"
        },
        {
          "internalType": "uint256",
          "name": "_value",
          "type": "uint256"
        }
      ],
      "name": "approve",
      "outputs": [
        {
          "internalType": "bool",
          "name": "success",
          "type": "bool"
        }
      ],
      "stateMutability": "nonpayable",
      "type": "function"
    },
    {
      "inputs": [
        {
          "internalType": "address",
          "name": "_from",
          "type": "address"
        },
        {
          "internalType": "address",
          "name": "_to",
          "type": "address"
        },
        {
          "internalType": "uint256",
          "name": "_value",
          "type": "uint256"
        }
      ],
      "name": "transferFrom",
      "outputs": [
        {
          "internalType": "bool",
          "name": "success",
          "type": "bool"
        }
      ],
      "stateMutability": "nonpayable",
      "type": "function"
    }
  ],
  "bytecode": "0x60806040526040518060400160405280600c81526020017f4368696c6c6172546f6b656e0000000000000000000000000000000000000000815250600090805190602001906200005192919062000132565b506040518060400160405280600381526020017f4348520000000000000000000000000000000000000000000000000000000000815250600190805190602001906200009f92919062000132565b5060126002556305f5e100600355348015620000ba57600080fd5b5060405162001068380380620010688339818101604052810190620000e0919062000222565b80600460003373ffffffffffffffffffffffffffffffffffffffff1673ffffffffffffffffffffffffffffffffffffffff168152602001908152602001600020819055508060038190555050620002b9565b828054620001409062000283565b90600052602060002090601f016020900481019282620001645760008555620001b0565b82601f106200017f57805160ff1916838001178555620001b0565b82800160010185558215620001b0579182015b82811115620001af57825182559160200191906001019062000192565b5b509050620001bf9190620001c3565b5090565b5b80821115620001de576000816000905550600101620001c4565b5090565b600080fd5b6000819050919050565b620001fc81620001e7565b81146200020857600080fd5b50565b6000815190506200021c81620001f1565b92915050565b6000602082840312156200023b576200023a620001e2565b5b60006200024b848285016200020b565b91505092915050565b7f4e487b7100000000000000000000000000000000000000000000000000000000600052602260045260246000fd5b600060028204905060018216806200029c57607f821691505b60208210811415620002b357620002b262000254565b5b50919050565b610d9f80620002c96000396000f3fe608060405234801561001057600080fd5b50600436106100935760003560e01c806370a082311161006657806370a0823114610134578063a9059cbb14610164578063b09f126614610194578063d28d8852146101b2578063dd62ed3e146101d057610093565b8063095ea7b31461009857806318160ddd146100c857806323b872dd146100e657806332424aa314610116575b600080fd5b6100b260048036038101906100ad9190610a34565b610200565b6040516100bf9190610a8f565b60405180910390f35b6100d06102f2565b6040516100dd9190610ab9565b60405180910390f35b61010060048036038101906100fb9190610ad4565b6102f8565b60405161010d9190610a8f565b60405180910390f35b61011e610663565b60405161012b9190610ab9565b60405180910390f35b61014e60048036038101906101499190610b27565b610669565b60405161015b9190610ab9565b60405180910390f35b61017e60048036038101906101799190610a34565b610681565b60405161018b9190610a8f565b60405180910390f35b61019c61085a565b6040516101a99190610bed565b60405180910390f35b6101ba6108e8565b6040516101c79190610bed565b60405180910390f35b6101ea60048036038101906101e59190610c0f565b610976565b6040516101f79190610ab9565b60405180910390f35b600081600560003373ffffffffffffffffffffffffffffffffffffffff1673ffffffffffffffffffffffffffffffffffffffff16815260200190815260200160002060008573ffffffffffffffffffffffffffffffffffffffff1673ffffffffffffffffffffffffffffffffffffffff168152602001908152602001600020819055508273ffffffffffffffffffffffffffffffffffffffff163373ffffffffffffffffffffffffffffffffffffffff167f8c5be1e5ebec7d5bd14f71427d1e84f3dd0314c0f7b2291e5b200ac8c7c3b925846040516102e09190610ab9565b60405180910390a36001905092915050565b60035481565b600081600460008673ffffffffffffffffffffffffffffffffffffffff1673ffffffffffffffffffffffffffffffffffffffff16815260200190815260200160002054101561034657600080fd5b81600560008673ffffffffffffffffffffffffffffffffffffffff1673ffffffffffffffffffffffffffffffffffffffff16815260200190815260200160002060003373ffffffffffffffffffffffffffffffffffffffff1673ffffffffffffffffffffffffffffffffffffffff1681526020019081526020016000205410156103cf57600080fd5b8273ffffffffffffffffffffffffffffffffffffffff168473ffffffffffffffffffffffffffffffffffffffff167fddf252ad1be2c89b69c2b068fc378daa952ba7f163c4a11628f55a4df523b3ef8460405161042c9190610ab9565b60405180910390a381600460003373ffffffffffffffffffffffffffffffffffffffff1673ffffffffffffffffffffffffffffffffffffffff1681526020019081526020016000205461047f9190610c7e565b600460003373ffffffffffffffffffffffffffffffffffffffff1673ffffffffffffffffffffffffffffffffffffffff1681526020019081526020016000208190555081600460008573ffffffffffffffffffffffffffffffffffffffff1673ffffffffffffffffffffffffffffffffffffffff1681526020019081526020016000205461050d9190610cb2565b600460008573ffffffffffffffffffffffffffffffffffffffff1673ffffffffffffffffffffffffffffffffffffffff1681526020019081526020016000208190555081600560008673ffffffffffffffffffffffffffffffffffffffff1673ffffffffffffffffffffffffffffffffffffffff16815260200190815260200160002060003373ffffffffffffffffffffffffffffffffffffffff1673ffffffffffffffffffffffffffffffffffffffff168152602001908152602001600020546105d89190610c7e565b600560008673ffffffffffffffffffffffffffffffffffffffff1673ffffffffffffffffffffffffffffffffffffffff16815260200190815260200160002060003373ffffffffffffffffffffffffffffffffffffffff1673ffffffffffffffffffffffffffffffffffffffff16815260200190815260200160002081905550600190509392505050565b60025481565b60046020528060005260406000206000915090505481565b600081600460003373ffffffffffffffffffffffffffffffffffffffff1673ffffffffffffffffffffffffffffffffffffffff1681526020019081526020016000205410156106cf57600080fd5b81600460003373ffffffffffffffffffffffffffffffffffffffff1673ffffffffffffffffffffffffffffffffffffffff1681526020019081526020016000205461071a9190610c7e565b600460003373ffffffffffffffffffffffffffffffffffffffff1673ffffffffffffffffffffffffffffffffffffffff1681526020019081526020016000208190555081600460008573ffffffffffffffffffffffffffffffffffffffff1673ffffffffffffffffffffffffffffffffffffffff168152602001908152602001600020546107a89190610cb2565b600460008573ffffffffffffffffffffffffffffffffffffffff1673ffffffffffffffffffffffffffffffffffffffff168152602001908152602001600020819055508273ffffffffffffffffffffffffffffffffffffffff163373ffffffffffffffffffffffffffffffffffffffff167fddf252ad1be2c89b69c2b068fc378daa952ba7f163c4a11628f55a4df523b3ef846040516108489190610ab9565b60405180910390a36001905092915050565b6001805461086790610d37565b80601f016020809104026020016040519081016040528092919081815260200182805461089390610d37565b80156108e05780601f106108b5576101008083540402835291602001916108e0565b820191906000526020600020905b8154815290600101906020018083116108c357829003601f168201915b505050505081565b600080546108f590610d37565b80601f016020809104026020016040519081016040528092919081815260200182805461092190610d37565b801561096e5780601f106109435761010080835404028352916020019161096e565b820191906000526020600020905b81548152906001019060200180831161095157829003601f168201915b505050505081565b6005602052816000526040600020602052806000526040600020600091509150505481565b600080fd5b600073ffffffffffffffffffffffffffffffffffffffff82169050919050565b60006109cb826109a0565b9050919050565b6109db816109c0565b81146109e657600080fd5b50565b6000813590506109f8816109d2565b92915050565b6000819050919050565b610a11816109fe565b8114610a1c57600080fd5b50565b600081359050610a2e81610a08565b92915050565b60008060408385031215610a4b57610a4a61099b565b5b6000610a59858286016109e9565b9250506020610a6a85828601610a1f565b9150509250929050565b60008115159050919050565b610a8981610a74565b82525050565b6000602082019050610aa46000830184610a80565b92915050565b610ab3816109fe565b82525050565b6000602082019050610ace6000830184610aaa565b92915050565b600080600060608486031215610aed57610aec61099b565b5b6000610afb868287016109e9565b9350506020610b0c868287016109e9565b9250506040610b1d86828701610a1f565b9150509250925092565b600060208284031215610b3d57610b3c61099b565b5b6000610b4b848285016109e9565b91505092915050565b600081519050919050565b600082825260208201905092915050565b60005b83811015610b8e578082015181840152602081019050610b73565b83811115610b9d576000848401525b50505050565b6000601f19601f8301169050919050565b6000610bbf82610b54565b610bc98185610b5f565b9350610bd9818560208601610b70565b610be281610ba3565b840191505092915050565b60006020820190508181036000830152610c078184610bb4565b905092915050565b60008060408385031215610c2657610c2561099b565b5b6000610c34858286016109e9565b9250506020610c45858286016109e9565b9150509250929050565b7f4e487b7100000000000000000000000000000000000000000000000000000000600052601160045260246000fd5b6000610c89826109fe565b9150610c94836109fe565b925082821015610ca757610ca6610c4f565b5b828203905092915050565b6000610cbd826109fe565b9150610cc8836109fe565b9250827fffffffffffffffffffffffffffffffffffffffffffffffffffffffffffffffff03821115610cfd57610cfc610c4f565b5b828201905092915050565b7f4e487b7100000000000000000000000000000000000000000000000000000000600052602260045260246000fd5b60006002820490506001821680610d4f57607f821691505b60208210811415610d6357610d62610d08565b5b5091905056fea26469706673582212203f888d2895a4f9e1d9fdc83d2e6e15c42413e56ce40bdd2664d470484a85246b64736f6c63430008090033",
  "immutableReferences": {},
  "source": "// SPDX-License-Identifier: MIT\r\npragma solidity ^0.8.7;\r\n\r\ncontract ChillarToken {\r\n    string public _name = \"ChillarToken\";\r\n    string public _symbol = \"CHR\";\r\n    uint256 public _decimals = 18;\r\n    uint256 public totalSupply = 100000000;\r\n\r\n    event Transfer(address indexed _from, address indexed _to, uint256 _value);\r\n    event Approval(address indexed _owner, address indexed _spender, uint256 _value);\r\n\r\n    mapping(address => uint256) public balanceOf;\r\n    mapping(address => mapping(address => uint256)) public allowance;\r\n     constructor(uint256 _initialSupply) {\r\n         balanceOf[msg.sender] = _initialSupply;\r\n        totalSupply = _initialSupply;\r\n    }\r\n\r\n    function transfer(address _to, uint256 _value) public returns (bool success) {\r\n        require(balanceOf[msg.sender] >= _value);\r\n        balanceOf[msg.sender] = balanceOf[msg.sender] - _value;\r\n        balanceOf[_to] = balanceOf[_to] + _value;\r\n        emit Transfer(msg.sender, _to, _value);\r\n        return true;\r\n    }\r\n\r\n    function approve(address _spender, uint256 _value) public returns (bool success) {\r\n            allowance[msg.sender][_spender] = _value;\r\n            emit Approval(msg.sender, _spender, _value);\r\n            return true;\r\n    }\r\n\r\n    function transferFrom(address _from, address _to, uint256 _value) public returns (bool success) {\r\n        require(balanceOf[_from] >= _value);\r\n        require(allowance[_from][msg.sender] >= _value);\r\n        emit Transfer(_from, _to, _value);\r\n        balanceOf[msg.sender] = balanceOf[msg.sender] - _value;\r\n        balanceOf[_to] = balanceOf[_to] + _value;\r\n        allowance[_from][msg.sender] = allowance[_from][msg.sender] - _value;\r\n        return true;\r\n    }\r\n}",
  "sourcePath": "D:\\java-script\\ICO_5\\contracts\\ChillarToken.sol",
  "compiler": {
    "name": "solc",
    "version": "0.8.9+commit.e5eed63a.Emscripten.clang"
  },
  "schemaVersion": "3.4.3",
  "updatedAt": "2021-10-01T09:41:02.819Z",
  "devdoc": {
    "kind": "dev",
    "methods": {},
    "version": 1
  },
  "userdoc": {
    "kind": "user",
    "methods": {},
    "version": 1
  }
}