{
  "contractName": "ChillarTokenCrowdsale",
  "abi": [
    {
      "inputs": [
        {
          "internalType": "uint256",
          "name": "price",
          "type": "uint256"
        },
        {
          "internalType": "address payable",
          "name": "purse",
          "type": "address"
        },
        {
          "internalType": "contract ERC20",
          "name": "coin",
          "type": "address"
        }
      ],
      "stateMutability": "nonpayable",
      "type": "constructor"
    },
    {
      "anonymous": false,
      "inputs": [
        {
          "indexed": true,
          "internalType": "address",
          "name": "previousOwner",
          "type": "address"
        },
        {
          "indexed": true,
          "internalType": "address",
          "name": "newOwner",
          "type": "address"
        }
      ],
      "name": "OwnershipTransferred",
      "type": "event"
    },
    {
      "anonymous": false,
      "inputs": [
        {
          "indexed": true,
          "internalType": "address",
          "name": "purchaser",
          "type": "address"
        },
        {
          "indexed": true,
          "internalType": "address",
          "name": "beneficiary",
          "type": "address"
        },
        {
          "indexed": false,
          "internalType": "uint256",
          "name": "value",
          "type": "uint256"
        },
        {
          "indexed": false,
          "internalType": "uint256",
          "name": "amount",
          "type": "uint256"
        }
      ],
      "name": "TokensPurchased",
      "type": "event"
    },
    {
      "inputs": [],
      "name": "AvailableTokens",
      "outputs": [
        {
          "internalType": "uint256",
          "name": "",
          "type": "uint256"
        }
      ],
      "stateMutability": "view",
      "type": "function"
    },
    {
      "inputs": [
        {
          "internalType": "address",
          "name": "beneficiary",
          "type": "address"
        }
      ],
      "name": "buyTokens",
      "outputs": [],
      "stateMutability": "payable",
      "type": "function"
    },
    {
      "inputs": [],
      "name": "getRate",
      "outputs": [
        {
          "internalType": "uint256",
          "name": "",
          "type": "uint256"
        }
      ],
      "stateMutability": "view",
      "type": "function"
    },
    {
      "inputs": [],
      "name": "getToken",
      "outputs": [
        {
          "internalType": "contract IERC20",
          "name": "",
          "type": "address"
        }
      ],
      "stateMutability": "view",
      "type": "function"
    },
    {
      "inputs": [],
      "name": "getWwallet",
      "outputs": [
        {
          "internalType": "address payable",
          "name": "",
          "type": "address"
        }
      ],
      "stateMutability": "view",
      "type": "function"
    },
    {
      "inputs": [],
      "name": "owner",
      "outputs": [
        {
          "internalType": "address",
          "name": "",
          "type": "address"
        }
      ],
      "stateMutability": "view",
      "type": "function"
    },
    {
      "inputs": [],
      "name": "renounceOwnership",
      "outputs": [],
      "stateMutability": "nonpayable",
      "type": "function"
    },
    {
      "inputs": [],
      "name": "stage",
      "outputs": [
        {
          "internalType": "enum ChillarTokenCrowdsale.CrowdsaleStages",
          "name": "",
          "type": "uint8"
        }
      ],
      "stateMutability": "view",
      "type": "function"
    },
    {
      "inputs": [
        {
          "internalType": "address",
          "name": "newOwner",
          "type": "address"
        }
      ],
      "name": "transferOwnership",
      "outputs": [],
      "stateMutability": "nonpayable",
      "type": "function"
    },
    {
      "inputs": [],
      "name": "weiRaised",
      "outputs": [
        {
          "internalType": "uint256",
          "name": "",
          "type": "uint256"
        }
      ],
      "stateMutability": "view",
      "type": "function"
    },
    {
      "stateMutability": "payable",
      "type": "receive"
    },
    {
      "inputs": [],
      "name": "getStageRate",
      "outputs": [
        {
          "internalType": "uint256",
          "name": "",
          "type": "uint256"
        }
      ],
      "stateMutability": "view",
      "type": "function"
    }
  ],
  "bytecode": "0x60806040526301c9c3806006556302faf0806007556301312d00600855620493e0600955620249f0600a556102ee600b55600654600c556000600d60006101000a81548160ff021916908360028111156200005f576200005e62000351565b5b02179055503480156200007157600080fd5b5060405162001b9c38038062001b9c83398181016040528101906200009791906200047e565b828282600160008190555060008311620000e8576040517f08c379a0000000000000000000000000000000000000000000000000000000008152600401620000df906200053b565b60405180910390fd5b600073ffffffffffffffffffffffffffffffffffffffff168273ffffffffffffffffffffffffffffffffffffffff1614156200015b576040517f08c379a00000000000000000000000000000000000000000000000000000000081526004016200015290620005d3565b60405180910390fd5b600073ffffffffffffffffffffffffffffffffffffffff168173ffffffffffffffffffffffffffffffffffffffff161415620001ce576040517f08c379a0000000000000000000000000000000000000000000000000000000008152600401620001c5906200066b565b60405180910390fd5b8260038190555081600260006101000a81548173ffffffffffffffffffffffffffffffffffffffff021916908373ffffffffffffffffffffffffffffffffffffffff16021790555080600160006101000a81548173ffffffffffffffffffffffffffffffffffffffff021916908373ffffffffffffffffffffffffffffffffffffffff1602179055505050506200027a6200026e6200028360201b60201c565b6200028b60201b60201c565b5050506200068d565b600033905090565b6000600560009054906101000a900473ffffffffffffffffffffffffffffffffffffffff16905081600560006101000a81548173ffffffffffffffffffffffffffffffffffffffff021916908373ffffffffffffffffffffffffffffffffffffffff1602179055508173ffffffffffffffffffffffffffffffffffffffff168173ffffffffffffffffffffffffffffffffffffffff167f8be0079c531659141344cd1fd0a4f28419497f9722a3daafe3b4186f6b6457e060405160405180910390a35050565b7f4e487b7100000000000000000000000000000000000000000000000000000000600052602160045260246000fd5b600080fd5b6000819050919050565b6200039a8162000385565b8114620003a657600080fd5b50565b600081519050620003ba816200038f565b92915050565b600073ffffffffffffffffffffffffffffffffffffffff82169050919050565b6000620003ed82620003c0565b9050919050565b620003ff81620003e0565b81146200040b57600080fd5b50565b6000815190506200041f81620003f4565b92915050565b60006200043282620003c0565b9050919050565b6000620004468262000425565b9050919050565b620004588162000439565b81146200046457600080fd5b50565b60008151905062000478816200044d565b92915050565b6000806000606084860312156200049a576200049962000380565b5b6000620004aa86828701620003a9565b9350506020620004bd868287016200040e565b9250506040620004d08682870162000467565b9150509250925092565b600082825260208201905092915050565b7f43726f776473616c653a20726174652069732030000000000000000000000000600082015250565b600062000523601483620004da565b91506200053082620004eb565b602082019050919050565b60006020820190508181036000830152620005568162000514565b9050919050565b7f43726f776473616c653a2077616c6c657420697320746865207a65726f20616460008201527f6472657373000000000000000000000000000000000000000000000000000000602082015250565b6000620005bb602583620004da565b9150620005c8826200055d565b604082019050919050565b60006020820190508181036000830152620005ee81620005ac565b9050919050565b7f43726f776473616c653a20746f6b656e20697320746865207a65726f2061646460008201527f7265737300000000000000000000000000000000000000000000000000000000602082015250565b600062000653602483620004da565b91506200066082620005f5565b604082019050919050565b60006020820190508181036000830152620006868162000644565b9050919050565b6114ff806200069d6000396000f3fe6080604052600436106100a05760003560e01c8063b8621c7c11610064578063b8621c7c1461017f578063c040e6b8146101aa578063c8a5f30e146101d5578063c93dc79914610200578063ec8ac4d81461022b578063f2fde38b14610247576100b7565b806321df0da7146100bc5780634042b66f146100e7578063679aefce14610112578063715018a61461013d5780638da5cb5b14610154576100b7565b366100b7576100b56100b0610270565b610278565b005b600080fd5b3480156100c857600080fd5b506100d161039e565b6040516100de9190610c6b565b60405180910390f35b3480156100f357600080fd5b506100fc6103c8565b6040516101099190610c9f565b60405180910390f35b34801561011e57600080fd5b506101276103d2565b6040516101349190610c9f565b60405180910390f35b34801561014957600080fd5b506101526103dc565b005b34801561016057600080fd5b50610169610464565b6040516101769190610cdb565b60405180910390f35b34801561018b57600080fd5b5061019461048e565b6040516101a19190610c9f565b60405180910390f35b3480156101b657600080fd5b506101bf610494565b6040516101cc9190610d6d565b60405180910390f35b3480156101e157600080fd5b506101ea6104a7565b6040516101f79190610c9f565b60405180910390f35b34801561020c57600080fd5b5061021561053d565b6040516102229190610da9565b60405180910390f35b61024560048036038101906102409190610df5565b610278565b005b34801561025357600080fd5b5061026e60048036038101906102699190610df5565b610567565b005b600033905090565b600260005414156102be576040517f08c379a00000000000000000000000000000000000000000000000000000000081526004016102b590610e7f565b60405180910390fd5b600260008190555060003490506102d5828261065f565b60006102e082610717565b90506102f78260045461073590919063ffffffff16565b600481905550610307838261074b565b8273ffffffffffffffffffffffffffffffffffffffff16610326610270565b73ffffffffffffffffffffffffffffffffffffffff167f6faf93231a456e552dbc9961f58d9713ee4f2e69d15f1975b050ef0911053a7b848460405161036d929190610e9f565b60405180910390a361037f8383610759565b61038761075d565b61039183836107c8565b5050600160008190555050565b6000600160009054906101000a900473ffffffffffffffffffffffffffffffffffffffff16905090565b6000600454905090565b6000600354905090565b6103e4610270565b73ffffffffffffffffffffffffffffffffffffffff16610402610464565b73ffffffffffffffffffffffffffffffffffffffff1614610458576040517f08c379a000000000000000000000000000000000000000000000000000000000815260040161044f90610f14565b60405180910390fd5b61046260006107cc565b565b6000600560009054906101000a900473ffffffffffffffffffffffffffffffffffffffff16905090565b600c5481565b600d60009054906101000a900460ff1681565b6000600160028111156104bd576104bc610cf6565b5b600d60009054906101000a900460ff1660028111156104df576104de610cf6565b5b14156104ef57600a54905061053a565b60028081111561050257610501610cf6565b5b600d60009054906101000a900460ff16600281111561052457610523610cf6565b5b141561053457600b54905061053a565b60095490505b90565b6000600260009054906101000a900473ffffffffffffffffffffffffffffffffffffffff16905090565b61056f610270565b73ffffffffffffffffffffffffffffffffffffffff1661058d610464565b73ffffffffffffffffffffffffffffffffffffffff16146105e3576040517f08c379a00000000000000000000000000000000000000000000000000000000081526004016105da90610f14565b60405180910390fd5b600073ffffffffffffffffffffffffffffffffffffffff168173ffffffffffffffffffffffffffffffffffffffff161415610653576040517f08c379a000000000000000000000000000000000000000000000000000000000815260040161064a90610fa6565b60405180910390fd5b61065c816107cc565b50565b600073ffffffffffffffffffffffffffffffffffffffff168273ffffffffffffffffffffffffffffffffffffffff1614156106cf576040517f08c379a00000000000000000000000000000000000000000000000000000000081526004016106c690611038565b60405180910390fd5b6000811415610713576040517f08c379a000000000000000000000000000000000000000000000000000000000815260040161070a906110a4565b60405180910390fd5b5050565b600061072e6003548361089290919063ffffffff16565b9050919050565b6000818361074391906110f3565b905092915050565b61075582826108a8565b5050565b5050565b600260009054906101000a900473ffffffffffffffffffffffffffffffffffffffff1673ffffffffffffffffffffffffffffffffffffffff166108fc349081150290604051600060405180830381858888f193505050501580156107c5573d6000803e3d6000fd5b50565b5050565b6000600560009054906101000a900473ffffffffffffffffffffffffffffffffffffffff16905081600560006101000a81548173ffffffffffffffffffffffffffffffffffffffff021916908373ffffffffffffffffffffffffffffffffffffffff1602179055508173ffffffffffffffffffffffffffffffffffffffff168173ffffffffffffffffffffffffffffffffffffffff167f8be0079c531659141344cd1fd0a4f28419497f9722a3daafe3b4186f6b6457e060405160405180910390a35050565b600081836108a09190611149565b905092915050565b6108f58282600160009054906101000a900473ffffffffffffffffffffffffffffffffffffffff1673ffffffffffffffffffffffffffffffffffffffff166108f99092919063ffffffff16565b5050565b61097a8363a9059cbb60e01b84846040516024016109189291906111a3565b604051602081830303815290604052907bffffffffffffffffffffffffffffffffffffffffffffffffffffffff19166020820180517bffffffffffffffffffffffffffffffffffffffffffffffffffffffff838183161783525050505061097f565b505050565b60006109e1826040518060400160405280602081526020017f5361666545524332303a206c6f772d6c6576656c2063616c6c206661696c65648152508573ffffffffffffffffffffffffffffffffffffffff16610a469092919063ffffffff16565b9050600081511115610a415780806020019051810190610a019190611204565b610a40576040517f08c379a0000000000000000000000000000000000000000000000000000000008152600401610a37906112a3565b60405180910390fd5b5b505050565b6060610a558484600085610a5e565b90509392505050565b606082471015610aa3576040517f08c379a0000000000000000000000000000000000000000000000000000000008152600401610a9a90611335565b60405180910390fd5b610aac85610b72565b610aeb576040517f08c379a0000000000000000000000000000000000000000000000000000000008152600401610ae2906113a1565b60405180910390fd5b6000808673ffffffffffffffffffffffffffffffffffffffff168587604051610b14919061143b565b60006040518083038185875af1925050503d8060008114610b51576040519150601f19603f3d011682016040523d82523d6000602084013e610b56565b606091505b5091509150610b66828286610b85565b92505050949350505050565b600080823b905060008111915050919050565b60608315610b9557829050610be5565b600083511115610ba85782518084602001fd5b816040517f08c379a0000000000000000000000000000000000000000000000000000000008152600401610bdc91906114a7565b60405180910390fd5b9392505050565b600073ffffffffffffffffffffffffffffffffffffffff82169050919050565b6000819050919050565b6000610c31610c2c610c2784610bec565b610c0c565b610bec565b9050919050565b6000610c4382610c16565b9050919050565b6000610c5582610c38565b9050919050565b610c6581610c4a565b82525050565b6000602082019050610c806000830184610c5c565b92915050565b6000819050919050565b610c9981610c86565b82525050565b6000602082019050610cb46000830184610c90565b92915050565b6000610cc582610bec565b9050919050565b610cd581610cba565b82525050565b6000602082019050610cf06000830184610ccc565b92915050565b7f4e487b7100000000000000000000000000000000000000000000000000000000600052602160045260246000fd5b60038110610d3657610d35610cf6565b5b50565b6000819050610d4782610d25565b919050565b6000610d5782610d39565b9050919050565b610d6781610d4c565b82525050565b6000602082019050610d826000830184610d5e565b92915050565b6000610d9382610bec565b9050919050565b610da381610d88565b82525050565b6000602082019050610dbe6000830184610d9a565b92915050565b600080fd5b610dd281610cba565b8114610ddd57600080fd5b50565b600081359050610def81610dc9565b92915050565b600060208284031215610e0b57610e0a610dc4565b5b6000610e1984828501610de0565b91505092915050565b600082825260208201905092915050565b7f5265656e7472616e637947756172643a207265656e7472616e742063616c6c00600082015250565b6000610e69601f83610e22565b9150610e7482610e33565b602082019050919050565b60006020820190508181036000830152610e9881610e5c565b9050919050565b6000604082019050610eb46000830185610c90565b610ec16020830184610c90565b9392505050565b7f4f776e61626c653a2063616c6c6572206973206e6f7420746865206f776e6572600082015250565b6000610efe602083610e22565b9150610f0982610ec8565b602082019050919050565b60006020820190508181036000830152610f2d81610ef1565b9050919050565b7f4f776e61626c653a206e6577206f776e657220697320746865207a65726f206160008201527f6464726573730000000000000000000000000000000000000000000000000000602082015250565b6000610f90602683610e22565b9150610f9b82610f34565b604082019050919050565b60006020820190508181036000830152610fbf81610f83565b9050919050565b7f43726f776473616c653a2062656e656669636961727920697320746865207a6560008201527f726f206164647265737300000000000000000000000000000000000000000000602082015250565b6000611022602a83610e22565b915061102d82610fc6565b604082019050919050565b6000602082019050818103600083015261105181611015565b9050919050565b7f43726f776473616c653a20776569416d6f756e74206973203000000000000000600082015250565b600061108e601983610e22565b915061109982611058565b602082019050919050565b600060208201905081810360008301526110bd81611081565b9050919050565b7f4e487b7100000000000000000000000000000000000000000000000000000000600052601160045260246000fd5b60006110fe82610c86565b915061110983610c86565b9250827fffffffffffffffffffffffffffffffffffffffffffffffffffffffffffffffff0382111561113e5761113d6110c4565b5b828201905092915050565b600061115482610c86565b915061115f83610c86565b9250817fffffffffffffffffffffffffffffffffffffffffffffffffffffffffffffffff0483118215151615611198576111976110c4565b5b828202905092915050565b60006040820190506111b86000830185610ccc565b6111c56020830184610c90565b9392505050565b60008115159050919050565b6111e1816111cc565b81146111ec57600080fd5b50565b6000815190506111fe816111d8565b92915050565b60006020828403121561121a57611219610dc4565b5b6000611228848285016111ef565b91505092915050565b7f5361666545524332303a204552433230206f7065726174696f6e20646964206e60008201527f6f74207375636365656400000000000000000000000000000000000000000000602082015250565b600061128d602a83610e22565b915061129882611231565b604082019050919050565b600060208201905081810360008301526112bc81611280565b9050919050565b7f416464726573733a20696e73756666696369656e742062616c616e636520666f60008201527f722063616c6c0000000000000000000000000000000000000000000000000000602082015250565b600061131f602683610e22565b915061132a826112c3565b604082019050919050565b6000602082019050818103600083015261134e81611312565b9050919050565b7f416464726573733a2063616c6c20746f206e6f6e2d636f6e7472616374000000600082015250565b600061138b601d83610e22565b915061139682611355565b602082019050919050565b600060208201905081810360008301526113ba8161137e565b9050919050565b600081519050919050565b600081905092915050565b60005b838110156113f55780820151818401526020810190506113da565b83811115611404576000848401525b50505050565b6000611415826113c1565b61141f81856113cc565b935061142f8185602086016113d7565b80840191505092915050565b6000611447828461140a565b915081905092915050565b600081519050919050565b6000601f19601f8301169050919050565b600061147982611452565b6114838185610e22565b93506114938185602086016113d7565b61149c8161145d565b840191505092915050565b600060208201905081810360008301526114c1818461146e565b90509291505056fea264697066735822122027d9b505ef78af85494602056d464950b0309a44173ea2cac888e1726984bf2d64736f6c63430008090033",
  "immutableReferences": {},
  "source": "// SPDX-License-Identifier: MIT\r\npragma solidity 0.8.9;\r\nimport \"./Crowdsale.sol\";\r\nimport \"openzeppelin-solidity/contracts/access/Ownable.sol\";\r\nimport \"openzeppelin-solidity/contracts/utils/math/SafeMath.sol\";\r\n\r\ncontract ChillarTokenCrowdsale is Crowdsale, Ownable {\r\n\r\n    using SafeMath for uint256;\r\n    \r\n    uint256 preICOSupply = 30000000;\r\n    uint256 ICOSupply = 50000000;\r\n    uint256 remainingSupply = 20000000;\r\n    uint256 preICORate = 300000;\r\n    uint256 ICORate = 150000;\r\n    uint256 remainingRate = 750;\r\n\r\n    uint256 public AvailableTokens = preICOSupply;\r\n\r\n    enum CrowdsaleStages { PreICO, ICO, RemainingSale}\r\n    \r\n    CrowdsaleStages public stage = CrowdsaleStages.PreICO;\r\n\r\n    constructor(\r\n        uint256 price,\r\n        address payable purse,\r\n        ERC20 coin\r\n    ) \r\n     Crowdsale(price, purse, coin) {}    \r\n    /*\r\n    assume 1 ETH == $3000\r\ntherefore, 10^18 wei = $3000\r\ntherefore, 1 USD is 10^18 /3000, or 0.3 * 10^15 wei\r\nwe have a decimals of 18, so well use 10 ^ 18 TKNbits instead of 1 TKN\r\ntherefore, if the participant sends the crowdsale (1usd)0.3 * 10^15 wei we should give them 10 ^ 18 TKNbits\r\ntherefore the rate is 0.3 * 10^15 wei === 10^18 TKNbits, or 1 wei = 3000 TKNbits\r\ntherefore, our rate for 1 usd = 30000000\r\ntherefore, our rate for 0.01 usd = 30000000/100 = 300000\r\ntherefore, our rate for 0.02 usd = 30000000/200 = 150000\r\n\r\n*/\r\n\r\n\r\n    function getStageRate() public view  returns (uint256) {\r\n        if (stage == CrowdsaleStages.ICO) {\r\n            return ICORate;\r\n        } else if (stage == CrowdsaleStages.RemainingSale) {\r\n            return remainingRate;\r\n        }\r\n        else {\r\n            return preICORate;\r\n        }\r\n    }\r\n\r\n    function _processBuy(address beneficiary, uint256 tokenAmount) internal  {\r\n        require( tokenAmount <= AvailableTokens * 10**18, \"Request for less quantity\");\r\n        AvailableTokens = AvailableTokens - (tokenAmount / 10**18);\r\n        if (AvailableTokens == 0) {\r\n            changeCrowdsaleStage();\r\n        }\r\n        super._deliverTokens(beneficiary, tokenAmount);\r\n    }\r\n\r\n    function changeCrowdsaleStage() internal {\r\n        if (stage == CrowdsaleStages.PreICO && AvailableTokens == 0) {\r\n                 stage = CrowdsaleStages.ICO;\r\n            AvailableTokens = ICOSupply;\r\n        } else if (stage == CrowdsaleStages.ICO && AvailableTokens == 0) {\r\n            stage = CrowdsaleStages.RemainingSale;\r\n            AvailableTokens = remainingSupply;\r\n        }\r\n    }\r\n}",
  "sourcePath": "D:\\java-script\\ICO_5\\contracts\\ChillarTokenCrowdsale.sol",
  "compiler": {
    "name": "solc",
    "version": "0.8.9+commit.e5eed63a.Emscripten.clang"
  },
  "schemaVersion": "3.4.3",
  "updatedAt": "2021-10-01T09:41:02.845Z",
  "devdoc": {
    "kind": "dev",
    "methods": {
      "buyTokens(address)": {
        "details": "low level token purchase ***DO NOT OVERRIDE*** This function has a non-reentrancy guard, so it shouldn't be called by another `nonReentrant` function.",
        "params": {
          "beneficiary": "Recipient of the token purchase"
        }
      },
      "getRate()": {
        "returns": {
          "_0": "the number of token units a buyer gets per wei."
        }
      },
      "getToken()": {
        "returns": {
          "_0": "the token being sold."
        }
      },
      "getWwallet()": {
        "returns": {
          "_0": "the address where funds are collected."
        }
      },
      "owner()": {
        "details": "Returns the address of the current owner."
      },
      "renounceOwnership()": {
        "details": "Leaves the contract without owner. It will not be possible to call `onlyOwner` functions anymore. Can only be called by the current owner. NOTE: Renouncing ownership will leave the contract without an owner, thereby removing any functionality that is only available to the owner."
      },
      "transferOwnership(address)": {
        "details": "Transfers ownership of the contract to a new account (`newOwner`). Can only be called by the current owner."
      },
      "weiRaised()": {
        "returns": {
          "_0": "the amount of wei raised."
        }
      }
    },
    "version": 1
  },
  "userdoc": {
    "events": {
      "TokensPurchased(address,address,uint256,uint256)": {
        "notice": "Event for token purchase logging"
      }
    },
    "kind": "user",
    "methods": {},
    "version": 1
  }
}